S015000042757A7A65725F74696E7931332E7372656306
S113000009C019C018C017C016C015C014C013C049
S113001012C011C011241FBECFE9CDBF10E0A0E66D
S1130020B0E0E2E8F0E002C005900D92A236B1071C
S1130030D9F702D024C0E4CFBB9ABC9A58E040E17F
S113004058BB2091600030916100121613063CF4F5
S113005080E090E00000019682179307D9F748BB2F
S11300602091600030916100121613064CF780E075
S113007090E00000019682179307D9F7E1CFF89436
S1050080FFCFAC
S10500822C014B
S9030000FC
